{
  "contractName": "ETHBTCMaxi",
  "abi": [
    {
      "inputs": [
        {
          "internalType": "string",
          "name": "_baseURI",
          "type": "string"
        },
        {
          "internalType": "address",
          "name": "_proxyRegistryAddress",
          "type": "address"
        },
        {
          "internalType": "address",
          "name": "_devWallet",
          "type": "address"
        },
        {
          "internalType": "address",
          "name": "_xbtcAddress",
          "type": "address"
        }
      ],
      "stateMutability": "nonpayable",
      "type": "constructor"
    },
    {
      "anonymous": false,
      "inputs": [
        {
          "indexed": true,
          "internalType": "address",
          "name": "owner",
          "type": "address"
        },
        {
          "indexed": true,
          "internalType": "address",
          "name": "approved",
          "type": "address"
        },
        {
          "indexed": true,
          "internalType": "uint256",
          "name": "tokenId",
          "type": "uint256"
        }
      ],
      "name": "Approval",
      "type": "event"
    },
    {
      "anonymous": false,
      "inputs": [
        {
          "indexed": true,
          "internalType": "address",
          "name": "owner",
          "type": "address"
        },
        {
          "indexed": true,
          "internalType": "address",
          "name": "operator",
          "type": "address"
        },
        {
          "indexed": false,
          "internalType": "bool",
          "name": "approved",
          "type": "bool"
        }
      ],
      "name": "ApprovalForAll",
      "type": "event"
    },
    {
      "anonymous": false,
      "inputs": [
        {
          "indexed": true,
          "internalType": "address",
          "name": "previousOwner",
          "type": "address"
        },
        {
          "indexed": true,
          "internalType": "address",
          "name": "newOwner",
          "type": "address"
        }
      ],
      "name": "OwnershipTransferred",
      "type": "event"
    },
    {
      "anonymous": false,
      "inputs": [
        {
          "indexed": true,
          "internalType": "address",
          "name": "from",
          "type": "address"
        },
        {
          "indexed": true,
          "internalType": "address",
          "name": "to",
          "type": "address"
        },
        {
          "indexed": true,
          "internalType": "uint256",
          "name": "tokenId",
          "type": "uint256"
        }
      ],
      "name": "Transfer",
      "type": "event"
    },
    {
      "inputs": [],
      "name": "MAX_PER_TX",
      "outputs": [
        {
          "internalType": "uint256",
          "name": "",
          "type": "uint256"
        }
      ],
      "stateMutability": "view",
      "type": "function",
      "constant": true
    },
    {
      "inputs": [],
      "name": "MAX_SUPPLY",
      "outputs": [
        {
          "internalType": "uint256",
          "name": "",
          "type": "uint256"
        }
      ],
      "stateMutability": "view",
      "type": "function",
      "constant": true
    },
    {
      "inputs": [],
      "name": "RESERVES",
      "outputs": [
        {
          "internalType": "uint256",
          "name": "",
          "type": "uint256"
        }
      ],
      "stateMutability": "view",
      "type": "function",
      "constant": true
    },
    {
      "inputs": [],
      "name": "TOKENS_CONTAINED",
      "outputs": [
        {
          "internalType": "uint256",
          "name": "",
          "type": "uint256"
        }
      ],
      "stateMutability": "view",
      "type": "function",
      "constant": true
    },
    {
      "inputs": [
        {
          "internalType": "address",
          "name": "",
          "type": "address"
        }
      ],
      "name": "addressToMinted",
      "outputs": [
        {
          "internalType": "uint256",
          "name": "",
          "type": "uint256"
        }
      ],
      "stateMutability": "view",
      "type": "function",
      "constant": true
    },
    {
      "inputs": [
        {
          "internalType": "address",
          "name": "to",
          "type": "address"
        },
        {
          "internalType": "uint256",
          "name": "tokenId",
          "type": "uint256"
        }
      ],
      "name": "approve",
      "outputs": [],
      "stateMutability": "nonpayable",
      "type": "function"
    },
    {
      "inputs": [
        {
          "internalType": "address",
          "name": "owner",
          "type": "address"
        }
      ],
      "name": "balanceOf",
      "outputs": [
        {
          "internalType": "uint256",
          "name": "",
          "type": "uint256"
        }
      ],
      "stateMutability": "view",
      "type": "function",
      "constant": true
    },
    {
      "inputs": [],
      "name": "baseURI",
      "outputs": [
        {
          "internalType": "string",
          "name": "",
          "type": "string"
        }
      ],
      "stateMutability": "view",
      "type": "function",
      "constant": true
    },
    {
      "inputs": [],
      "name": "devWallet",
      "outputs": [
        {
          "internalType": "address",
          "name": "",
          "type": "address"
        }
      ],
      "stateMutability": "view",
      "type": "function",
      "constant": true
    },
    {
      "inputs": [
        {
          "internalType": "uint256",
          "name": "tokenId",
          "type": "uint256"
        }
      ],
      "name": "getApproved",
      "outputs": [
        {
          "internalType": "address",
          "name": "",
          "type": "address"
        }
      ],
      "stateMutability": "view",
      "type": "function",
      "constant": true
    },
    {
      "inputs": [],
      "name": "name",
      "outputs": [
        {
          "internalType": "string",
          "name": "",
          "type": "string"
        }
      ],
      "stateMutability": "view",
      "type": "function",
      "constant": true
    },
    {
      "inputs": [],
      "name": "owner",
      "outputs": [
        {
          "internalType": "address",
          "name": "",
          "type": "address"
        }
      ],
      "stateMutability": "view",
      "type": "function",
      "constant": true
    },
    {
      "inputs": [
        {
          "internalType": "uint256",
          "name": "tokenId",
          "type": "uint256"
        }
      ],
      "name": "ownerOf",
      "outputs": [
        {
          "internalType": "address",
          "name": "",
          "type": "address"
        }
      ],
      "stateMutability": "view",
      "type": "function",
      "constant": true
    },
    {
      "inputs": [],
      "name": "priceInWei",
      "outputs": [
        {
          "internalType": "uint256",
          "name": "",
          "type": "uint256"
        }
      ],
      "stateMutability": "view",
      "type": "function",
      "constant": true
    },
    {
      "inputs": [],
      "name": "proxyRegistryAddress",
      "outputs": [
        {
          "internalType": "address",
          "name": "",
          "type": "address"
        }
      ],
      "stateMutability": "view",
      "type": "function",
      "constant": true
    },
    {
      "inputs": [],
      "name": "renounceOwnership",
      "outputs": [],
      "stateMutability": "nonpayable",
      "type": "function"
    },
    {
      "inputs": [
        {
          "internalType": "address",
          "name": "from",
          "type": "address"
        },
        {
          "internalType": "address",
          "name": "to",
          "type": "address"
        },
        {
          "internalType": "uint256",
          "name": "tokenId",
          "type": "uint256"
        }
      ],
      "name": "safeTransferFrom",
      "outputs": [],
      "stateMutability": "nonpayable",
      "type": "function"
    },
    {
      "inputs": [
        {
          "internalType": "address",
          "name": "from",
          "type": "address"
        },
        {
          "internalType": "address",
          "name": "to",
          "type": "address"
        },
        {
          "internalType": "uint256",
          "name": "tokenId",
          "type": "uint256"
        },
        {
          "internalType": "bytes",
          "name": "_data",
          "type": "bytes"
        }
      ],
      "name": "safeTransferFrom",
      "outputs": [],
      "stateMutability": "nonpayable",
      "type": "function"
    },
    {
      "inputs": [
        {
          "internalType": "address",
          "name": "operator",
          "type": "address"
        },
        {
          "internalType": "bool",
          "name": "approved",
          "type": "bool"
        }
      ],
      "name": "setApprovalForAll",
      "outputs": [],
      "stateMutability": "nonpayable",
      "type": "function"
    },
    {
      "inputs": [
        {
          "internalType": "bytes4",
          "name": "interfaceId",
          "type": "bytes4"
        }
      ],
      "name": "supportsInterface",
      "outputs": [
        {
          "internalType": "bool",
          "name": "",
          "type": "bool"
        }
      ],
      "stateMutability": "view",
      "type": "function",
      "constant": true
    },
    {
      "inputs": [],
      "name": "symbol",
      "outputs": [
        {
          "internalType": "string",
          "name": "",
          "type": "string"
        }
      ],
      "stateMutability": "view",
      "type": "function",
      "constant": true
    },
    {
      "inputs": [
        {
          "internalType": "uint256",
          "name": "index",
          "type": "uint256"
        }
      ],
      "name": "tokenByIndex",
      "outputs": [
        {
          "internalType": "uint256",
          "name": "",
          "type": "uint256"
        }
      ],
      "stateMutability": "view",
      "type": "function",
      "constant": true
    },
    {
      "inputs": [
        {
          "internalType": "address",
          "name": "owner",
          "type": "address"
        },
        {
          "internalType": "uint256",
          "name": "index",
          "type": "uint256"
        }
      ],
      "name": "tokenOfOwnerByIndex",
      "outputs": [
        {
          "internalType": "uint256",
          "name": "tokenId",
          "type": "uint256"
        }
      ],
      "stateMutability": "view",
      "type": "function",
      "constant": true
    },
    {
      "inputs": [],
      "name": "totalSupply",
      "outputs": [
        {
          "internalType": "uint256",
          "name": "",
          "type": "uint256"
        }
      ],
      "stateMutability": "view",
      "type": "function",
      "constant": true
    },
    {
      "inputs": [
        {
          "internalType": "address",
          "name": "from",
          "type": "address"
        },
        {
          "internalType": "address",
          "name": "to",
          "type": "address"
        },
        {
          "internalType": "uint256",
          "name": "tokenId",
          "type": "uint256"
        }
      ],
      "name": "transferFrom",
      "outputs": [],
      "stateMutability": "nonpayable",
      "type": "function"
    },
    {
      "inputs": [
        {
          "internalType": "address",
          "name": "newOwner",
          "type": "address"
        }
      ],
      "name": "transferOwnership",
      "outputs": [],
      "stateMutability": "nonpayable",
      "type": "function"
    },
    {
      "inputs": [],
      "name": "xbtcAddress",
      "outputs": [
        {
          "internalType": "address",
          "name": "",
          "type": "address"
        }
      ],
      "stateMutability": "view",
      "type": "function",
      "constant": true
    },
    {
      "inputs": [
        {
          "internalType": "string",
          "name": "_baseURI",
          "type": "string"
        }
      ],
      "name": "setBaseURI",
      "outputs": [],
      "stateMutability": "nonpayable",
      "type": "function"
    },
    {
      "inputs": [
        {
          "internalType": "uint256",
          "name": "_tokenId",
          "type": "uint256"
        }
      ],
      "name": "tokenURI",
      "outputs": [
        {
          "internalType": "string",
          "name": "",
          "type": "string"
        }
      ],
      "stateMutability": "view",
      "type": "function",
      "constant": true
    },
    {
      "inputs": [],
      "name": "collectReserves",
      "outputs": [],
      "stateMutability": "nonpayable",
      "type": "function"
    },
    {
      "inputs": [
        {
          "internalType": "uint256",
          "name": "count",
          "type": "uint256"
        }
      ],
      "name": "publicMint",
      "outputs": [],
      "stateMutability": "payable",
      "type": "function",
      "payable": true
    },
    {
      "inputs": [
        {
          "internalType": "uint256",
          "name": "tokenId",
          "type": "uint256"
        }
      ],
      "name": "burn",
      "outputs": [],
      "stateMutability": "nonpayable",
      "type": "function"
    },
    {
      "inputs": [],
      "name": "withdraw",
      "outputs": [],
      "stateMutability": "nonpayable",
      "type": "function"
    },
    {
      "inputs": [
        {
          "internalType": "address",
          "name": "_owner",
          "type": "address"
        }
      ],
      "name": "walletOfOwner",
      "outputs": [
        {
          "internalType": "uint256[]",
          "name": "",
          "type": "uint256[]"
        }
      ],
      "stateMutability": "view",
      "type": "function",
      "constant": true
    },
    {
      "inputs": [
        {
          "internalType": "address",
          "name": "_from",
          "type": "address"
        },
        {
          "internalType": "address",
          "name": "_to",
          "type": "address"
        },
        {
          "internalType": "uint256[]",
          "name": "_tokenIds",
          "type": "uint256[]"
        }
      ],
      "name": "batchTransferFrom",
      "outputs": [],
      "stateMutability": "nonpayable",
      "type": "function"
    },
    {
      "inputs": [
        {
          "internalType": "address",
          "name": "_from",
          "type": "address"
        },
        {
          "internalType": "address",
          "name": "_to",
          "type": "address"
        },
        {
          "internalType": "uint256[]",
          "name": "_tokenIds",
          "type": "uint256[]"
        },
        {
          "internalType": "bytes",
          "name": "data_",
          "type": "bytes"
        }
      ],
      "name": "batchSafeTransferFrom",
      "outputs": [],
      "stateMutability": "nonpayable",
      "type": "function"
    },
    {
      "inputs": [
        {
          "internalType": "address",
          "name": "account",
          "type": "address"
        },
        {
          "internalType": "uint256[]",
          "name": "_tokenIds",
          "type": "uint256[]"
        }
      ],
      "name": "isOwnerOf",
      "outputs": [
        {
          "internalType": "bool",
          "name": "",
          "type": "bool"
        }
      ],
      "stateMutability": "view",
      "type": "function",
      "constant": true
    },
    {
      "inputs": [
        {
          "internalType": "address",
          "name": "_owner",
          "type": "address"
        },
        {
          "internalType": "address",
          "name": "operator",
          "type": "address"
        }
      ],
      "name": "isApprovedForAll",
      "outputs": [
        {
          "internalType": "bool",
          "name": "",
          "type": "bool"
        }
      ],
      "stateMutability": "view",
      "type": "function",
      "constant": true
    }
  ],
  "bytecode": "0x60806040523480156200001157600080fd5b50604051620028dc380380620028dc833981016040819052620000349162000235565b604080518082018252600a808252694554484254434d61786960b01b60208084018281528551808701909652928552840152815191929162000079916000916200015c565b5080516200008f9060019060208401906200015c565b505050620000ac620000a66200010660201b60201c565b6200010a565b8351620000c19060069060208701906200015c565b50600780546001600160a01b039485166001600160a01b0319918216179091556008805493851693821693909317909255600980549190931691161790555062000388565b3390565b600580546001600160a01b038381166001600160a01b0319831681179093556040519116919082907f8be0079c531659141344cd1fd0a4f28419497f9722a3daafe3b4186f6b6457e090600090a35050565b8280546200016a906200034b565b90600052602060002090601f0160209004810192826200018e5760008555620001d9565b82601f10620001a957805160ff1916838001178555620001d9565b82800160010185558215620001d9579182015b82811115620001d9578251825591602001919060010190620001bc565b50620001e7929150620001eb565b5090565b5b80821115620001e75760008155600101620001ec565b634e487b7160e01b600052604160045260246000fd5b80516001600160a01b03811681146200023057600080fd5b919050565b600080600080608085870312156200024c57600080fd5b84516001600160401b03808211156200026457600080fd5b818701915087601f8301126200027957600080fd5b8151818111156200028e576200028e62000202565b604051601f8201601f19908116603f01168101908382118183101715620002b957620002b962000202565b81604052828152602093508a84848701011115620002d657600080fd5b600091505b82821015620002fa5784820184015181830185015290830190620002db565b828211156200030c5760008484830101525b97506200031e91505087820162000218565b94505050620003306040860162000218565b9150620003406060860162000218565b905092959194509250565b600181811c908216806200036057607f821691505b602082108114156200038257634e487b7160e01b600052602260045260246000fd5b50919050565b61254480620003986000396000f3fe6080604052600436106102245760003560e01c806355f804b31161012357806395d89b41116100ab578063cd7c03261161006f578063cd7c03261461062f578063e985e9c51461064f578063f2fde38b1461066f578063f3993d111461068f578063f43a22dc146106af57600080fd5b806395d89b411461058d5780639ec00c95146105a2578063a22cb465146105cf578063b88d4fde146105ef578063c87b56dd1461060f57600080fd5b80636c0360eb116100f25780636c0360eb1461050557806370a082311461051a578063715018a61461053a5780638da5cb5b1461054f5780638ea5220f1461056d57600080fd5b806355f804b31461048c5780635a4fee30146104ac578063617e81da146104cc5780636352211e146104e557600080fd5b80632db11544116101b157806342842e0e1161017557806342842e0e146103df57806342966c68146103ff578063438b63001461041f5780634d44660c1461044c5780634f6ccce71461046c57600080fd5b80632db11544146103675780632f745c591461037a57806332cb6b0c1461039a5780633c8da588146103af5780633ccfd60b146103ca57600080fd5b8063081812fc116101f8578063081812fc146102cf5780630922f9c5146102ef578063095ea7b31461031257806318160ddd1461033257806323b872dd1461034757600080fd5b8062c4672b1461022957806301ffc9a714610266578063029877b61461029657806306fdde03146102ad575b600080fd5b34801561023557600080fd5b50600954610249906001600160a01b031681565b6040516001600160a01b0390911681526020015b60405180910390f35b34801561027257600080fd5b50610286610281366004611c32565b6106c4565b604051901515815260200161025d565b3480156102a257600080fd5b506102ab6106ef565b005b3480156102b957600080fd5b506102c261079d565b60405161025d9190611ca7565b3480156102db57600080fd5b506102496102ea366004611cba565b61082f565b3480156102fb57600080fd5b50610304600581565b60405190815260200161025d565b34801561031e57600080fd5b506102ab61032d366004611ce8565b6108b7565b34801561033e57600080fd5b50600254610304565b34801561035357600080fd5b506102ab610362366004611d14565b6109cd565b6102ab610375366004611cba565b6109ff565b34801561038657600080fd5b50610304610395366004611ce8565b610b30565b3480156103a657600080fd5b50610304606481565b3480156103bb57600080fd5b5061030466e6ed27d666800081565b3480156103d657600080fd5b506102ab610be3565b3480156103eb57600080fd5b506102ab6103fa366004611d14565b610c7c565b34801561040b57600080fd5b506102ab61041a366004611cba565b610c97565b34801561042b57600080fd5b5061043f61043a366004611d55565b610d78565b60405161025d9190611d72565b34801561045857600080fd5b50610286610467366004611db6565b610e31565b34801561047857600080fd5b50610304610487366004611cba565b610eb3565b34801561049857600080fd5b506102ab6104a7366004611edd565b610f20565b3480156104b857600080fd5b506102ab6104c7366004611fc6565b610f5d565b3480156104d857600080fd5b506103046430e4f9b40081565b3480156104f157600080fd5b50610249610500366004611cba565b610fa7565b34801561051157600080fd5b506102c2611033565b34801561052657600080fd5b50610304610535366004611d55565b6110c1565b34801561054657600080fd5b506102ab61118f565b34801561055b57600080fd5b506005546001600160a01b0316610249565b34801561057957600080fd5b50600854610249906001600160a01b031681565b34801561059957600080fd5b506102c26111c5565b3480156105ae57600080fd5b506103046105bd366004611d55565b600a6020526000908152604090205481565b3480156105db57600080fd5b506102ab6105ea36600461205d565b6111d4565b3480156105fb57600080fd5b506102ab61060a366004612096565b611299565b34801561061b57600080fd5b506102c261062a366004611cba565b6112d1565b34801561063b57600080fd5b50600754610249906001600160a01b031681565b34801561065b57600080fd5b5061028661066a3660046120f6565b611352565b34801561067b57600080fd5b506102ab61068a366004611d55565b611413565b34801561069b57600080fd5b506102ab6106aa366004612124565b6114ab565b3480156106bb57600080fd5b50610304600a81565b60006001600160e01b0319821663780e9d6360e01b14806106e957506106e9826114ed565b92915050565b6005546001600160a01b031633146107225760405162461bcd60e51b815260040161071990612186565b60405180910390fd5b600254156107725760405162461bcd60e51b815260206004820152601760248201527f526573657276657320616c72656164792074616b656e2e0000000000000000006044820152606401610719565b60005b600581101561079a57610788338261153d565b80610792816121d1565b915050610775565b50565b6060600080546107ac906121ec565b80601f01602080910402602001604051908101604052809291908181526020018280546107d8906121ec565b80156108255780601f106107fa57610100808354040283529160200191610825565b820191906000526020600020905b81548152906001019060200180831161080857829003601f168201915b5050505050905090565b600061083a826115b9565b61089b5760405162461bcd60e51b815260206004820152602c60248201527f4552433732313a20617070726f76656420717565727920666f72206e6f6e657860448201526b34b9ba32b73a103a37b5b2b760a11b6064820152608401610719565b506000908152600360205260409020546001600160a01b031690565b60006108c282610fa7565b9050806001600160a01b0316836001600160a01b031614156109305760405162461bcd60e51b815260206004820152602160248201527f4552433732313a20617070726f76616c20746f2063757272656e74206f776e656044820152603960f91b6064820152608401610719565b336001600160a01b038216148061094c575061094c8133611352565b6109be5760405162461bcd60e51b815260206004820152603860248201527f4552433732313a20617070726f76652063616c6c6572206973206e6f74206f7760448201527f6e6572206e6f7220617070726f76656420666f7220616c6c00000000000000006064820152608401610719565b6109c88383611603565b505050565b6109d8335b82611671565b6109f45760405162461bcd60e51b815260040161071990612227565b6109c8838383611733565b6002546064610a0e8383612278565b10610a515760405162461bcd60e51b815260206004820152601360248201527222bc31b2b232b99036b0bc1039bab838363c9760691b6044820152606401610719565b600a8210610aa15760405162461bcd60e51b815260206004820152601c60248201527f45786365656473206d617820706572207472616e73616374696f6e2e000000006044820152606401610719565b34610ab366e6ed27d666800084612290565b14610b005760405162461bcd60e51b815260206004820152601760248201527f496e76616c69642066756e64732070726f76696465642e0000000000000000006044820152606401610719565b60005b828110156109c857610b1e33610b198385612278565b61153d565b80610b28816121d1565b915050610b03565b6000610b3b836110c1565b8210610b595760405162461bcd60e51b8152600401610719906122af565b6000805b600254811015610bca5760028181548110610b7a57610b7a6122fa565b6000918252602090912001546001600160a01b0386811691161415610bb85783821415610baa5791506106e99050565b81610bb4816121d1565b9250505b80610bc2816121d1565b915050610b5d565b5060405162461bcd60e51b8152600401610719906122af565b6008546040516000916001600160a01b03169047908381818185875af1925050503d8060008114610c30576040519150601f19603f3d011682016040523d82523d6000602084013e610c35565b606091505b505090508061079a5760405162461bcd60e51b81526020600482015260136024820152722330b4b632b2103a37903bb4ba34323930bb9760691b6044820152606401610719565b6109c883838360405180602001604052806000815250611299565b610ca0336109d2565b610ce45760405162461bcd60e51b81526020600482015260156024820152742737ba1030b8383937bb32b2103a3790313ab9371760591b6044820152606401610719565b610ced81611889565b6009546001600160a01b031663a9059cbb336040516001600160e01b031960e084901b1681526001600160a01b0390911660048201526430e4f9b40060248201526044016020604051808303816000875af1158015610d50573d6000803e3d6000fd5b505050506040513d601f19601f82011682018060405250810190610d749190612310565b5050565b60606000610d85836110c1565b905080610da65760408051600080825260208201909252905b509392505050565b60008167ffffffffffffffff811115610dc157610dc1611e3e565b604051908082528060200260200182016040528015610dea578160200160208202803683370190505b50905060005b82811015610d9e57610e028582610b30565b828281518110610e1457610e146122fa565b602090810291909101015280610e29816121d1565b915050610df0565b6000805b82811015610ea657846001600160a01b03166002858584818110610e5b57610e5b6122fa565b9050602002013581548110610e7257610e726122fa565b6000918252602090912001546001600160a01b031614610e96576000915050610eac565b610e9f816121d1565b9050610e35565b50600190505b9392505050565b6002546000908210610f1c5760405162461bcd60e51b815260206004820152602c60248201527f455243373231456e756d657261626c653a20676c6f62616c20696e646578206f60448201526b7574206f6620626f756e647360a01b6064820152608401610719565b5090565b6005546001600160a01b03163314610f4a5760405162461bcd60e51b815260040161071990612186565b8051610d74906006906020840190611b8c565b60005b8251811015610fa057610f8e8585858481518110610f8057610f806122fa565b602002602001015185611299565b80610f98816121d1565b915050610f60565b5050505050565b60008060028381548110610fbd57610fbd6122fa565b6000918252602090912001546001600160a01b03169050806106e95760405162461bcd60e51b815260206004820152602960248201527f4552433732313a206f776e657220717565727920666f72206e6f6e657869737460448201526832b73a103a37b5b2b760b91b6064820152608401610719565b60068054611040906121ec565b80601f016020809104026020016040519081016040528092919081815260200182805461106c906121ec565b80156110b95780601f1061108e576101008083540402835291602001916110b9565b820191906000526020600020905b81548152906001019060200180831161109c57829003601f168201915b505050505081565b60006001600160a01b03821661112c5760405162461bcd60e51b815260206004820152602a60248201527f4552433732313a2062616c616e636520717565727920666f7220746865207a65604482015269726f206164647265737360b01b6064820152608401610719565b6000805b600254811015611188576002818154811061114d5761114d6122fa565b6000918252602090912001546001600160a01b038581169116141561117857611175826121d1565b91505b611181816121d1565b9050611130565b5092915050565b6005546001600160a01b031633146111b95760405162461bcd60e51b815260040161071990612186565b6111c3600061190b565b565b6060600180546107ac906121ec565b6001600160a01b03821633141561122d5760405162461bcd60e51b815260206004820152601960248201527f4552433732313a20617070726f766520746f2063616c6c6572000000000000006044820152606401610719565b3360008181526004602090815260408083206001600160a01b03871680855290835292819020805460ff191686151590811790915590519081529192917f17307eab39ab6107e8899845ad3d59bd9653f200f220920489ca2b5937696c31910160405180910390a35050565b6112a33383611671565b6112bf5760405162461bcd60e51b815260040161071990612227565b6112cb8484848461195d565b50505050565b60606112dc826115b9565b6113205760405162461bcd60e51b81526020600482015260156024820152742a37b5b2b7103237b2b9903737ba1032bc34b9ba1760591b6044820152606401610719565b600661132b83611990565b60405160200161133c929190612349565b6040516020818303038152906040529050919050565b60075460405163c455279160e01b81526001600160a01b03848116600483015260009281169190841690829063c455279190602401602060405180830381865afa1580156113a4573d6000803e3d6000fd5b505050506040513d601f19601f820116820180604052508101906113c891906123f0565b6001600160a01b031614156113e15760019150506106e9565b6001600160a01b0380851660009081526004602090815260408083209387168352929052205460ff165b949350505050565b6005546001600160a01b0316331461143d5760405162461bcd60e51b815260040161071990612186565b6001600160a01b0381166114a25760405162461bcd60e51b815260206004820152602660248201527f4f776e61626c653a206e6577206f776e657220697320746865207a65726f206160448201526564647265737360d01b6064820152608401610719565b61079a8161190b565b60005b81518110156112cb576114db84848484815181106114ce576114ce6122fa565b60200260200101516109cd565b806114e5816121d1565b9150506114ae565b60006001600160e01b031982166380ac58cd60e01b148061151e57506001600160e01b03198216635b5e139f60e01b145b806106e957506301ffc9a760e01b6001600160e01b03198316146106e9565b6002805460018101825560009182527f405787fa12a823e0f2b7631cc41b3ba8828b3321ca811111fa75cd3aa3bb5ace0180546001600160a01b0319166001600160a01b0385169081179091556040518392907fddf252ad1be2c89b69c2b068fc378daa952ba7f163c4a11628f55a4df523b3ef908290a45050565b600254600090821080156106e9575060006001600160a01b0316600283815481106115e6576115e66122fa565b6000918252602090912001546001600160a01b0316141592915050565b600081815260036020526040902080546001600160a01b0319166001600160a01b038416908117909155819061163882610fa7565b6001600160a01b03167f8c5be1e5ebec7d5bd14f71427d1e84f3dd0314c0f7b2291e5b200ac8c7c3b92560405160405180910390a45050565b600061167c826115b9565b6116dd5760405162461bcd60e51b815260206004820152602c60248201527f4552433732313a206f70657261746f7220717565727920666f72206e6f6e657860448201526b34b9ba32b73a103a37b5b2b760a11b6064820152608401610719565b60006116e883610fa7565b9050806001600160a01b0316846001600160a01b031614806117235750836001600160a01b03166117188461082f565b6001600160a01b0316145b8061140b575061140b8185611352565b826001600160a01b031661174682610fa7565b6001600160a01b0316146117ae5760405162461bcd60e51b815260206004820152602960248201527f4552433732313a207472616e73666572206f6620746f6b656e2074686174206960448201526839903737ba1037bbb760b91b6064820152608401610719565b6001600160a01b0382166118105760405162461bcd60e51b8152602060048201526024808201527f4552433732313a207472616e7366657220746f20746865207a65726f206164646044820152637265737360e01b6064820152608401610719565b61181b600082611603565b816002828154811061182f5761182f6122fa565b6000918252602082200180546001600160a01b0319166001600160a01b03938416179055604051839285811692908716917fddf252ad1be2c89b69c2b068fc378daa952ba7f163c4a11628f55a4df523b3ef9190a4505050565b600061189482610fa7565b90506118a1600083611603565b6000600283815481106118b6576118b66122fa565b6000918252602082200180546001600160a01b0319166001600160a01b0393841617905560405184928416907fddf252ad1be2c89b69c2b068fc378daa952ba7f163c4a11628f55a4df523b3ef908390a45050565b600580546001600160a01b038381166001600160a01b0319831681179093556040519116919082907f8be0079c531659141344cd1fd0a4f28419497f9722a3daafe3b4186f6b6457e090600090a35050565b611968848484611733565b61197484848484611a8e565b6112cb5760405162461bcd60e51b81526004016107199061240d565b6060816119b45750506040805180820190915260018152600360fc1b602082015290565b8160005b81156119de57806119c8816121d1565b91506119d79050600a83612475565b91506119b8565b60008167ffffffffffffffff8111156119f9576119f9611e3e565b6040519080825280601f01601f191660200182016040528015611a23576020820181803683370190505b5090505b841561140b57611a38600183612489565b9150611a45600a866124a0565b611a50906030612278565b60f81b818381518110611a6557611a656122fa565b60200101906001600160f81b031916908160001a905350611a87600a86612475565b9450611a27565b60006001600160a01b0384163b15611b8157604051630a85bd0160e11b81526001600160a01b0385169063150b7a0290611ad29033908990889088906004016124b4565b6020604051808303816000875af1925050508015611b0d575060408051601f3d908101601f19168201909252611b0a918101906124f1565b60015b611b67573d808015611b3b576040519150601f19603f3d011682016040523d82523d6000602084013e611b40565b606091505b508051611b5f5760405162461bcd60e51b81526004016107199061240d565b805181602001fd5b6001600160e01b031916630a85bd0160e11b14905061140b565b506001949350505050565b828054611b98906121ec565b90600052602060002090601f016020900481019282611bba5760008555611c00565b82601f10611bd357805160ff1916838001178555611c00565b82800160010185558215611c00579182015b82811115611c00578251825591602001919060010190611be5565b50610f1c9291505b80821115610f1c5760008155600101611c08565b6001600160e01b03198116811461079a57600080fd5b600060208284031215611c4457600080fd5b8135610eac81611c1c565b60005b83811015611c6a578181015183820152602001611c52565b838111156112cb5750506000910152565b60008151808452611c93816020860160208601611c4f565b601f01601f19169290920160200192915050565b602081526000610eac6020830184611c7b565b600060208284031215611ccc57600080fd5b5035919050565b6001600160a01b038116811461079a57600080fd5b60008060408385031215611cfb57600080fd5b8235611d0681611cd3565b946020939093013593505050565b600080600060608486031215611d2957600080fd5b8335611d3481611cd3565b92506020840135611d4481611cd3565b929592945050506040919091013590565b600060208284031215611d6757600080fd5b8135610eac81611cd3565b6020808252825182820181905260009190848201906040850190845b81811015611daa57835183529284019291840191600101611d8e565b50909695505050505050565b600080600060408486031215611dcb57600080fd5b8335611dd681611cd3565b9250602084013567ffffffffffffffff80821115611df357600080fd5b818601915086601f830112611e0757600080fd5b813581811115611e1657600080fd5b8760208260051b8501011115611e2b57600080fd5b6020830194508093505050509250925092565b634e487b7160e01b600052604160045260246000fd5b604051601f8201601f1916810167ffffffffffffffff81118282101715611e7d57611e7d611e3e565b604052919050565b600067ffffffffffffffff831115611e9f57611e9f611e3e565b611eb2601f8401601f1916602001611e54565b9050828152838383011115611ec657600080fd5b828260208301376000602084830101529392505050565b600060208284031215611eef57600080fd5b813567ffffffffffffffff811115611f0657600080fd5b8201601f81018413611f1757600080fd5b61140b84823560208401611e85565b600082601f830112611f3757600080fd5b8135602067ffffffffffffffff821115611f5357611f53611e3e565b8160051b611f62828201611e54565b9283528481018201928281019087851115611f7c57600080fd5b83870192505b84831015611f9b57823582529183019190830190611f82565b979650505050505050565b600082601f830112611fb757600080fd5b610eac83833560208501611e85565b60008060008060808587031215611fdc57600080fd5b8435611fe781611cd3565b93506020850135611ff781611cd3565b9250604085013567ffffffffffffffff8082111561201457600080fd5b61202088838901611f26565b9350606087013591508082111561203657600080fd5b5061204387828801611fa6565b91505092959194509250565b801515811461079a57600080fd5b6000806040838503121561207057600080fd5b823561207b81611cd3565b9150602083013561208b8161204f565b809150509250929050565b600080600080608085870312156120ac57600080fd5b84356120b781611cd3565b935060208501356120c781611cd3565b925060408501359150606085013567ffffffffffffffff8111156120ea57600080fd5b61204387828801611fa6565b6000806040838503121561210957600080fd5b823561211481611cd3565b9150602083013561208b81611cd3565b60008060006060848603121561213957600080fd5b833561214481611cd3565b9250602084013561215481611cd3565b9150604084013567ffffffffffffffff81111561217057600080fd5b61217c86828701611f26565b9150509250925092565b6020808252818101527f4f776e61626c653a2063616c6c6572206973206e6f7420746865206f776e6572604082015260600190565b634e487b7160e01b600052601160045260246000fd5b60006000198214156121e5576121e56121bb565b5060010190565b600181811c9082168061220057607f821691505b6020821081141561222157634e487b7160e01b600052602260045260246000fd5b50919050565b60208082526031908201527f4552433732313a207472616e736665722063616c6c6572206973206e6f74206f6040820152701ddb995c881b9bdc88185c1c1c9bdd9959607a1b606082015260800190565b6000821982111561228b5761228b6121bb565b500190565b60008160001904831182151516156122aa576122aa6121bb565b500290565b6020808252602b908201527f455243373231456e756d657261626c653a206f776e657220696e646578206f7560408201526a74206f6620626f756e647360a81b606082015260800190565b634e487b7160e01b600052603260045260246000fd5b60006020828403121561232257600080fd5b8151610eac8161204f565b6000815161233f818560208601611c4f565b9290920192915050565b600080845481600182811c91508083168061236557607f831692505b602080841082141561238557634e487b7160e01b86526022600452602486fd5b81801561239957600181146123aa576123d7565b60ff198616895284890196506123d7565b60008b81526020902060005b868110156123cf5781548b8201529085019083016123b6565b505084890196505b5050505050506123e7818561232d565b95945050505050565b60006020828403121561240257600080fd5b8151610eac81611cd3565b60208082526032908201527f4552433732313a207472616e7366657220746f206e6f6e20455243373231526560408201527131b2b4bb32b91034b6b83632b6b2b73a32b960711b606082015260800190565b634e487b7160e01b600052601260045260246000fd5b6000826124845761248461245f565b500490565b60008282101561249b5761249b6121bb565b500390565b6000826124af576124af61245f565b500690565b6001600160a01b03858116825284166020820152604081018390526080606082018190526000906124e790830184611c7b565b9695505050505050565b60006020828403121561250357600080fd5b8151610eac81611c1c56fea26469706673582212200ced607cb19490332710915974edbbd190ac530a31a6133acae6206e7047b87364736f6c634300080b0033",
  "immutableReferences": {},
  "source": "// SPDX-License-Identifier: MIT\n\npragma solidity ^0.8.7;\n\n/**\n *\n *   =0o0=o0o=0o0=o0o=0o0=o0o=0o0=o0o=0o0=o0o=0o0=o0o=0o0=o0o=0o0=\n *   =0o0=o0o=0o0=o0o=0o0=o0o=0o0=o0o=0o0=o0o=0o0=o0o=0o0=o0o=0o0=\n *    _____ _____ _   _ ______ _______   _____  ___           _ \n *   |  ___|_   _| | | || ___ \\_   _\\ \\ / /|  \\/  |          (_)\n *   | |__   | | | |_| || |_/ / | |  \\ V / | .  . | __ ___  ___ \n *   |  __|  | | |  _  || ___ \\ | |  /   \\ | |\\/| |/ _` \\ \\/ / |\n *   | |___  | | | | | || |_/ / | | / /^\\ \\| |  | | (_| |>  <| |\n *   \\____/  \\_/ \\_| |_/\\____/  \\_/ \\/   \\/\\_|  |_/\\__,_/_/\\_\\_|                                                         \n *\n *   =0o0=o0o=0o0=o0o=0o0=o0o=0o0=o0o=0o0=o0o=0o0=o0o=0o0=o0o=0o0=\n *   =0o0=o0o=0o0=o0o=0o0=o0o=0o0=o0o=0o0=o0o=0o0=o0o=0o0=o0o=0o0=\n *\n *   Optimization credits: NuclearNerds.sol\n *\n*/\n\nimport \"@openzeppelin/contracts/token/ERC20/IERC20.sol\";\nimport \"@openzeppelin/contracts/access/Ownable.sol\";\nimport \"./ERC721Enumerable.sol\";\n\ncontract ETHBTCMaxi is ERC721Enumerable, Ownable {\n    string  public              baseURI;\n    \n    address public              proxyRegistryAddress;\n    address public              devWallet;\n    address public              xbtcAddress;\n\n    uint256 public constant     MAX_SUPPLY          = 100;\n    uint256 public constant     TOKENS_CONTAINED    = 210000000000;\n    uint256 public constant     MAX_PER_TX          = 10;\n    uint256 public constant     RESERVES            = 5;\n    uint256 public constant     priceInWei          = 0.065 ether;\n\n    mapping(address => uint) public addressToMinted;\n\n    constructor(\n        string memory _baseURI, \n        address _proxyRegistryAddress, \n        address _devWallet,\n        address _xbtcAddress\n    )\n        ERC721(\"ETHBTCMaxi\", \"ETHBTCMaxi\")\n    {\n        baseURI = _baseURI;\n        proxyRegistryAddress = _proxyRegistryAddress;\n        devWallet = _devWallet;\n        xbtcAddress = _xbtcAddress;\n    }\n\n    function setBaseURI(string memory _baseURI) public onlyOwner {\n        baseURI = _baseURI;\n    }\n\n    function tokenURI(uint256 _tokenId) public view override returns (string memory) {\n        require(_exists(_tokenId), \"Token does not exist.\");\n        return string(abi.encodePacked(baseURI, Strings.toString(_tokenId)));\n    }\n\n    function collectReserves() external onlyOwner {\n        require(_owners.length == 0, 'Reserves already taken.');\n        for(uint256 i; i < RESERVES; i++)\n            _mint(_msgSender(), i);\n    }\n\n    function publicMint(uint256 count) public payable {\n        uint256 totalSupply = _owners.length;\n        require(totalSupply + count < MAX_SUPPLY, \"Excedes max supply.\");\n        require(count < MAX_PER_TX, \"Exceeds max per transaction.\");\n        require(count * priceInWei == msg.value, \"Invalid funds provided.\");\n\n        for(uint i; i < count; i++) { \n            _mint(_msgSender(), totalSupply + i);\n        }\n    }\n\n    function burn(uint256 tokenId) public { \n        require(_isApprovedOrOwner(_msgSender(), tokenId), \"Not approved to burn.\");\n        _burn(tokenId);\n        IERC20(xbtcAddress).transfer(_msgSender(), TOKENS_CONTAINED);\n    }\n\n    function withdraw() public  {\n        (bool success, ) = devWallet.call{value: address(this).balance}(\"\");\n        require(success, \"Failed to withdraw.\");\n    }\n\n    function walletOfOwner(address _owner) public view returns (uint256[] memory) {\n        uint256 tokenCount = balanceOf(_owner);\n        if (tokenCount == 0) return new uint256[](0);\n\n        uint256[] memory tokensId = new uint256[](tokenCount);\n        for (uint256 i; i < tokenCount; i++) {\n            tokensId[i] = tokenOfOwnerByIndex(_owner, i);\n        }\n\n        return tokensId;\n    }\n\n    function batchTransferFrom(address _from, address _to, uint256[] memory _tokenIds) public {\n        for (uint256 i = 0; i < _tokenIds.length; i++) {\n            transferFrom(_from, _to, _tokenIds[i]);\n        }\n    }\n\n    function batchSafeTransferFrom(address _from, address _to, uint256[] memory _tokenIds, bytes memory data_) public {\n        for (uint256 i = 0; i < _tokenIds.length; i++) {\n            safeTransferFrom(_from, _to, _tokenIds[i], data_);\n        }\n    }\n\n    function isOwnerOf(address account, uint256[] calldata _tokenIds) external view returns (bool){\n        for(uint256 i; i < _tokenIds.length; ++i ){\n            if(_owners[_tokenIds[i]] != account)\n                return false;\n        }\n        return true;\n    }\n\n    function isApprovedForAll(address _owner, address operator) public view override returns (bool) {\n        OpenSeaProxyRegistry proxyRegistry = OpenSeaProxyRegistry(proxyRegistryAddress);\n        if (address(proxyRegistry.proxies(_owner)) == operator) return true;\n        return super.isApprovedForAll(_owner, operator);\n    }\n\n    function _mint(address to, uint256 tokenId) internal virtual override {\n        _owners.push(to);\n        emit Transfer(address(0), to, tokenId);\n    }\n}\n\ncontract OwnableDelegateProxy { }\ncontract OpenSeaProxyRegistry {\n    mapping(address => OwnableDelegateProxy) public proxies;\n}",
  "sourcePath": "C:\\Users\\Pablo\\Documents\\GitHub\\district-contract\\contracts\\ETHBTCMaxi.sol",
  "compiler": {
    "name": "solc",
    "version": "0.8.11+commit.d7f03943.Emscripten.clang"
  },
  "schemaVersion": "3.4.4",
  "updatedAt": "2022-01-09T21:04:23.248Z",
  "networkType": "ethereum",
  "devdoc": {
    "kind": "dev",
    "methods": {
      "approve(address,uint256)": {
        "details": "See {IERC721-approve}."
      },
      "balanceOf(address)": {
        "details": "See {IERC721-balanceOf}."
      },
      "getApproved(uint256)": {
        "details": "See {IERC721-getApproved}."
      },
      "name()": {
        "details": "See {IERC721Metadata-name}."
      },
      "owner()": {
        "details": "Returns the address of the current owner."
      },
      "ownerOf(uint256)": {
        "details": "See {IERC721-ownerOf}."
      },
      "renounceOwnership()": {
        "details": "Leaves the contract without owner. It will not be possible to call `onlyOwner` functions anymore. Can only be called by the current owner. NOTE: Renouncing ownership will leave the contract without an owner, thereby removing any functionality that is only available to the owner."
      },
      "safeTransferFrom(address,address,uint256)": {
        "details": "See {IERC721-safeTransferFrom}."
      },
      "safeTransferFrom(address,address,uint256,bytes)": {
        "details": "See {IERC721-safeTransferFrom}."
      },
      "setApprovalForAll(address,bool)": {
        "details": "See {IERC721-setApprovalForAll}."
      },
      "supportsInterface(bytes4)": {
        "details": "See {IERC165-supportsInterface}."
      },
      "symbol()": {
        "details": "See {IERC721Metadata-symbol}."
      },
      "tokenByIndex(uint256)": {
        "details": "See {IERC721Enumerable-tokenByIndex}."
      },
      "tokenOfOwnerByIndex(address,uint256)": {
        "details": "See {IERC721Enumerable-tokenOfOwnerByIndex}."
      },
      "totalSupply()": {
        "details": "See {IERC721Enumerable-totalSupply}."
      },
      "transferFrom(address,address,uint256)": {
        "details": "See {IERC721-transferFrom}."
      },
      "transferOwnership(address)": {
        "details": "Transfers ownership of the contract to a new account (`newOwner`). Can only be called by the current owner."
      }
    },
    "version": 1
  },
  "userdoc": {
    "kind": "user",
    "methods": {},
    "version": 1
  }
}